{
  "_format": "hh-sol-artifact-1",
  "contractName": "Booker",
  "sourceName": "contracts/Booker.sol",
  "abi": [
    {
      "inputs": [],
      "stateMutability": "nonpayable",
      "type": "constructor"
    },
    {
      "anonymous": false,
      "inputs": [
        {
          "indexed": true,
          "internalType": "address",
          "name": "owner",
          "type": "address"
        },
        {
          "indexed": true,
          "internalType": "address",
          "name": "approved",
          "type": "address"
        },
        {
          "indexed": true,
          "internalType": "uint256",
          "name": "tokenId",
          "type": "uint256"
        }
      ],
      "name": "Approval",
      "type": "event"
    },
    {
      "anonymous": false,
      "inputs": [
        {
          "indexed": true,
          "internalType": "address",
          "name": "owner",
          "type": "address"
        },
        {
          "indexed": true,
          "internalType": "address",
          "name": "operator",
          "type": "address"
        },
        {
          "indexed": false,
          "internalType": "bool",
          "name": "approved",
          "type": "bool"
        }
      ],
      "name": "ApprovalForAll",
      "type": "event"
    },
    {
      "anonymous": false,
      "inputs": [
        {
          "indexed": false,
          "internalType": "address",
          "name": "user",
          "type": "address"
        },
        {
          "indexed": false,
          "internalType": "string",
          "name": "stayId",
          "type": "string"
        },
        {
          "indexed": false,
          "internalType": "uint256",
          "name": "value",
          "type": "uint256"
        }
      ],
      "name": "BookStay",
      "type": "event"
    },
    {
      "anonymous": false,
      "inputs": [
        {
          "indexed": false,
          "internalType": "address",
          "name": "user",
          "type": "address"
        },
        {
          "indexed": false,
          "internalType": "uint256",
          "name": "value",
          "type": "uint256"
        }
      ],
      "name": "JoinStay",
      "type": "event"
    },
    {
      "anonymous": false,
      "inputs": [
        {
          "indexed": true,
          "internalType": "address",
          "name": "previousOwner",
          "type": "address"
        },
        {
          "indexed": true,
          "internalType": "address",
          "name": "newOwner",
          "type": "address"
        }
      ],
      "name": "OwnershipTransferred",
      "type": "event"
    },
    {
      "anonymous": false,
      "inputs": [
        {
          "indexed": true,
          "internalType": "address",
          "name": "from",
          "type": "address"
        },
        {
          "indexed": true,
          "internalType": "address",
          "name": "to",
          "type": "address"
        },
        {
          "indexed": true,
          "internalType": "uint256",
          "name": "tokenId",
          "type": "uint256"
        }
      ],
      "name": "Transfer",
      "type": "event"
    },
    {
      "inputs": [
        {
          "internalType": "string",
          "name": "id",
          "type": "string"
        },
        {
          "internalType": "uint256",
          "name": "costPerPerson",
          "type": "uint256"
        },
        {
          "internalType": "uint8",
          "name": "spots",
          "type": "uint8"
        },
        {
          "internalType": "string",
          "name": "imageURL",
          "type": "string"
        }
      ],
      "name": "addStay",
      "outputs": [],
      "stateMutability": "nonpayable",
      "type": "function"
    },
    {
      "inputs": [
        {
          "internalType": "address",
          "name": "to",
          "type": "address"
        },
        {
          "internalType": "uint256",
          "name": "tokenId",
          "type": "uint256"
        }
      ],
      "name": "approve",
      "outputs": [],
      "stateMutability": "nonpayable",
      "type": "function"
    },
    {
      "inputs": [
        {
          "internalType": "address",
          "name": "owner",
          "type": "address"
        }
      ],
      "name": "balanceOf",
      "outputs": [
        {
          "internalType": "uint256",
          "name": "",
          "type": "uint256"
        }
      ],
      "stateMutability": "view",
      "type": "function"
    },
    {
      "inputs": [],
      "name": "fee",
      "outputs": [
        {
          "internalType": "uint256",
          "name": "",
          "type": "uint256"
        }
      ],
      "stateMutability": "view",
      "type": "function"
    },
    {
      "inputs": [
        {
          "internalType": "uint256",
          "name": "tokenId",
          "type": "uint256"
        }
      ],
      "name": "getApproved",
      "outputs": [
        {
          "internalType": "address",
          "name": "",
          "type": "address"
        }
      ],
      "stateMutability": "view",
      "type": "function"
    },
    {
      "inputs": [],
      "name": "getMaxBlockTimestampDelay",
      "outputs": [
        {
          "internalType": "uint256",
          "name": "",
          "type": "uint256"
        }
      ],
      "stateMutability": "view",
      "type": "function"
    },
    {
      "inputs": [],
      "name": "getMaxDataTimestampDelay",
      "outputs": [
        {
          "internalType": "uint256",
          "name": "",
          "type": "uint256"
        }
      ],
      "stateMutability": "view",
      "type": "function"
    },
    {
      "inputs": [
        {
          "internalType": "string",
          "name": "id",
          "type": "string"
        }
      ],
      "name": "getStay",
      "outputs": [
        {
          "components": [
            {
              "internalType": "string",
              "name": "id",
              "type": "string"
            },
            {
              "internalType": "uint256",
              "name": "costPerPerson",
              "type": "uint256"
            },
            {
              "internalType": "uint256",
              "name": "fundsRaised",
              "type": "uint256"
            },
            {
              "internalType": "uint8",
              "name": "spots",
              "type": "uint8"
            },
            {
              "internalType": "string",
              "name": "imageURL",
              "type": "string"
            }
          ],
          "internalType": "struct Booker.Stay",
          "name": "",
          "type": "tuple"
        }
      ],
      "stateMutability": "view",
      "type": "function"
    },
    {
      "inputs": [
        {
          "internalType": "address",
          "name": "owner",
          "type": "address"
        },
        {
          "internalType": "address",
          "name": "operator",
          "type": "address"
        }
      ],
      "name": "isApprovedForAll",
      "outputs": [
        {
          "internalType": "bool",
          "name": "",
          "type": "bool"
        }
      ],
      "stateMutability": "view",
      "type": "function"
    },
    {
      "inputs": [
        {
          "internalType": "address",
          "name": "_receviedSigner",
          "type": "address"
        }
      ],
      "name": "isSignerAuthorized",
      "outputs": [
        {
          "internalType": "bool",
          "name": "",
          "type": "bool"
        }
      ],
      "stateMutability": "view",
      "type": "function"
    },
    {
      "inputs": [
        {
          "internalType": "uint256",
          "name": "_receivedTimestamp",
          "type": "uint256"
        }
      ],
      "name": "isTimestampValid",
      "outputs": [
        {
          "internalType": "bool",
          "name": "",
          "type": "bool"
        }
      ],
      "stateMutability": "view",
      "type": "function"
    },
    {
      "inputs": [
        {
          "internalType": "contract IERC20",
          "name": "token",
          "type": "address"
        },
        {
          "internalType": "uint256",
          "name": "amount",
          "type": "uint256"
        },
        {
          "internalType": "string",
          "name": "stayId",
          "type": "string"
        }
      ],
      "name": "joinWithERC20",
      "outputs": [],
      "stateMutability": "nonpayable",
      "type": "function"
    },
    {
      "inputs": [
        {
          "internalType": "string",
          "name": "stayId",
          "type": "string"
        }
      ],
      "name": "joinWithETH",
      "outputs": [],
      "stateMutability": "payable",
      "type": "function"
    },
    {
      "inputs": [],
      "name": "name",
      "outputs": [
        {
          "internalType": "string",
          "name": "",
          "type": "string"
        }
      ],
      "stateMutability": "view",
      "type": "function"
    },
    {
      "inputs": [],
      "name": "owner",
      "outputs": [
        {
          "internalType": "address",
          "name": "",
          "type": "address"
        }
      ],
      "stateMutability": "view",
      "type": "function"
    },
    {
      "inputs": [
        {
          "internalType": "uint256",
          "name": "tokenId",
          "type": "uint256"
        }
      ],
      "name": "ownerOf",
      "outputs": [
        {
          "internalType": "address",
          "name": "",
          "type": "address"
        }
      ],
      "stateMutability": "view",
      "type": "function"
    },
    {
      "inputs": [],
      "name": "renounceOwnership",
      "outputs": [],
      "stateMutability": "nonpayable",
      "type": "function"
    },
    {
      "inputs": [
        {
          "internalType": "address",
          "name": "from",
          "type": "address"
        },
        {
          "internalType": "address",
          "name": "to",
          "type": "address"
        },
        {
          "internalType": "uint256",
          "name": "tokenId",
          "type": "uint256"
        }
      ],
      "name": "safeTransferFrom",
      "outputs": [],
      "stateMutability": "nonpayable",
      "type": "function"
    },
    {
      "inputs": [
        {
          "internalType": "address",
          "name": "from",
          "type": "address"
        },
        {
          "internalType": "address",
          "name": "to",
          "type": "address"
        },
        {
          "internalType": "uint256",
          "name": "tokenId",
          "type": "uint256"
        },
        {
          "internalType": "bytes",
          "name": "data",
          "type": "bytes"
        }
      ],
      "name": "safeTransferFrom",
      "outputs": [],
      "stateMutability": "nonpayable",
      "type": "function"
    },
    {
      "inputs": [
        {
          "internalType": "address",
          "name": "operator",
          "type": "address"
        },
        {
          "internalType": "bool",
          "name": "approved",
          "type": "bool"
        }
      ],
      "name": "setApprovalForAll",
      "outputs": [],
      "stateMutability": "nonpayable",
      "type": "function"
    },
    {
      "inputs": [
        {
          "internalType": "uint256",
          "name": "feePercentage",
          "type": "uint256"
        }
      ],
      "name": "setFee",
      "outputs": [],
      "stateMutability": "nonpayable",
      "type": "function"
    },
    {
      "inputs": [
        {
          "internalType": "bytes4",
          "name": "interfaceId",
          "type": "bytes4"
        }
      ],
      "name": "supportsInterface",
      "outputs": [
        {
          "internalType": "bool",
          "name": "",
          "type": "bool"
        }
      ],
      "stateMutability": "view",
      "type": "function"
    },
    {
      "inputs": [],
      "name": "symbol",
      "outputs": [
        {
          "internalType": "string",
          "name": "",
          "type": "string"
        }
      ],
      "stateMutability": "view",
      "type": "function"
    },
    {
      "inputs": [
        {
          "internalType": "uint256",
          "name": "tokenId",
          "type": "uint256"
        }
      ],
      "name": "tokenURI",
      "outputs": [
        {
          "internalType": "string",
          "name": "",
          "type": "string"
        }
      ],
      "stateMutability": "view",
      "type": "function"
    },
    {
      "inputs": [
        {
          "internalType": "address",
          "name": "from",
          "type": "address"
        },
        {
          "internalType": "address",
          "name": "to",
          "type": "address"
        },
        {
          "internalType": "uint256",
          "name": "tokenId",
          "type": "uint256"
        }
      ],
      "name": "transferFrom",
      "outputs": [],
      "stateMutability": "nonpayable",
      "type": "function"
    },
    {
      "inputs": [
        {
          "internalType": "address",
          "name": "newOwner",
          "type": "address"
        }
      ],
      "name": "transferOwnership",
      "outputs": [],
      "stateMutability": "nonpayable",
      "type": "function"
    }
  ],
  "bytecode": "0x60806040523480156200001157600080fd5b506040518060400160405280600981526020017f53746179546f6b656e00000000000000000000000000000000000000000000008152506040518060400160405280600381526020017f53545600000000000000000000000000000000000000000000000000000000008152506200009e620000926200012160201b60201c565b6200012960201b60201c565b8160019080519060200190620000b6929190620001ed565b508060029080519060200190620000cf929190620001ed565b505050606860098190555033600a60006101000a81548173ffffffffffffffffffffffffffffffffffffffff021916908373ffffffffffffffffffffffffffffffffffffffff16021790555062000302565b600033905090565b60008060009054906101000a900473ffffffffffffffffffffffffffffffffffffffff169050816000806101000a81548173ffffffffffffffffffffffffffffffffffffffff021916908373ffffffffffffffffffffffffffffffffffffffff1602179055508173ffffffffffffffffffffffffffffffffffffffff168173ffffffffffffffffffffffffffffffffffffffff167f8be0079c531659141344cd1fd0a4f28419497f9722a3daafe3b4186f6b6457e060405160405180910390a35050565b828054620001fb90620002cc565b90600052602060002090601f0160209004810192826200021f57600085556200026b565b82601f106200023a57805160ff19168380011785556200026b565b828001600101855582156200026b579182015b828111156200026a5782518255916020019190600101906200024d565b5b5090506200027a91906200027e565b5090565b5b80821115620002995760008160009055506001016200027f565b5090565b7f4e487b7100000000000000000000000000000000000000000000000000000000600052602260045260246000fd5b60006002820490506001821680620002e557607f821691505b60208210811415620002fc57620002fb6200029d565b5b50919050565b614bbb80620003126000396000f3fe6080604052600436106101815760003560e01c806375058205116100d1578063b88d4fde1161008a578063dfb0f98f11610064578063dfb0f98f14610597578063e985e9c5146105c0578063f2fde38b146105fd578063f31a210a1461062657610181565b8063b88d4fde14610506578063c87b56dd1461052f578063ddca3f431461056c57610181565b806375058205146104055780637d5094ce146104425780638da5cb5b1461046b57806395d89b4114610496578063963a7c1e146104c1578063a22cb465146104dd57610181565b806342842e0e1161013e5780636352211e116101185780636352211e1461034b57806369fe0e2d1461038857806370a08231146103b1578063715018a6146103ee57610181565b806342842e0e146102ba5780634bd314e2146102e35780635118af5a1461032057610181565b806301ffc9a71461018657806306fdde03146101c3578063081812fc146101ee578063095ea7b31461022b57806311c89b101461025457806323b872dd14610291575b600080fd5b34801561019257600080fd5b506101ad60048036038101906101a89190612fbf565b610651565b6040516101ba9190613007565b60405180910390f35b3480156101cf57600080fd5b506101d8610733565b6040516101e591906130bb565b60405180910390f35b3480156101fa57600080fd5b5061021560048036038101906102109190613113565b6107c5565b6040516102229190613181565b60405180910390f35b34801561023757600080fd5b50610252600480360381019061024d91906131c8565b61080b565b005b34801561026057600080fd5b5061027b60048036038101906102769190613208565b610923565b6040516102889190613007565b60405180910390f35b34801561029d57600080fd5b506102b860048036038101906102b39190613235565b61096f565b005b3480156102c657600080fd5b506102e160048036038101906102dc9190613235565b6109cf565b005b3480156102ef57600080fd5b5061030a600480360381019061030591906132ed565b6109ef565b604051610317919061342c565b60405180910390f35b34801561032c57600080fd5b50610335610b7f565b604051610342919061345d565b60405180910390f35b34801561035757600080fd5b50610372600480360381019061036d9190613113565b610b88565b60405161037f9190613181565b60405180910390f35b34801561039457600080fd5b506103af60048036038101906103aa9190613113565b610c3a565b005b3480156103bd57600080fd5b506103d860048036038101906103d39190613208565b610c4c565b6040516103e5919061345d565b60405180910390f35b3480156103fa57600080fd5b50610403610d04565b005b34801561041157600080fd5b5061042c60048036038101906104279190613113565b610d18565b6040516104399190613007565b60405180910390f35b34801561044e57600080fd5b50610469600480360381019061046491906134a4565b610d94565b005b34801561047757600080fd5b50610480610ee9565b60405161048d9190613181565b60405180910390f35b3480156104a257600080fd5b506104ab610f12565b6040516104b891906130bb565b60405180910390f35b6104db60048036038101906104d691906132ed565b610fa4565b005b3480156104e957600080fd5b5061050460048036038101906104ff9190613577565b61126f565b005b34801561051257600080fd5b5061052d600480360381019061052891906136e7565b611285565b005b34801561053b57600080fd5b5061055660048036038101906105519190613113565b6112e7565b60405161056391906130bb565b60405180910390f35b34801561057857600080fd5b506105816112f9565b60405161058e919061345d565b60405180910390f35b3480156105a357600080fd5b506105be60048036038101906105b991906137a8565b6112ff565b005b3480156105cc57600080fd5b506105e760048036038101906105e2919061381c565b611806565b6040516105f49190613007565b60405180910390f35b34801561060957600080fd5b50610624600480360381019061061f9190613208565b61189a565b005b34801561063257600080fd5b5061063b61191e565b604051610648919061345d565b60405180910390f35b60007f80ac58cd000000000000000000000000000000000000000000000000000000007bffffffffffffffffffffffffffffffffffffffffffffffffffffffff1916827bffffffffffffffffffffffffffffffffffffffffffffffffffffffff1916148061071c57507f5b5e139f000000000000000000000000000000000000000000000000000000007bffffffffffffffffffffffffffffffffffffffffffffffffffffffff1916827bffffffffffffffffffffffffffffffffffffffffffffffffffffffff1916145b8061072c575061072b82611927565b5b9050919050565b6060600180546107429061388b565b80601f016020809104026020016040519081016040528092919081815260200182805461076e9061388b565b80156107bb5780601f10610790576101008083540402835291602001916107bb565b820191906000526020600020905b81548152906001019060200180831161079e57829003601f168201915b5050505050905090565b60006107d082611991565b6005600083815260200190815260200160002060009054906101000a900473ffffffffffffffffffffffffffffffffffffffff169050919050565b600061081682610b88565b90508073ffffffffffffffffffffffffffffffffffffffff168373ffffffffffffffffffffffffffffffffffffffff161415610887576040517f08c379a000000000000000000000000000000000000000000000000000000000815260040161087e9061392f565b60405180910390fd5b8073ffffffffffffffffffffffffffffffffffffffff166108a66119dc565b73ffffffffffffffffffffffffffffffffffffffff1614806108d557506108d4816108cf6119dc565b611806565b5b610914576040517f08c379a000000000000000000000000000000000000000000000000000000000815260040161090b906139c1565b60405180910390fd5b61091e83836119e4565b505050565b600073fe71e9691b9524bc932c23d0eed5c9ce4116188473ffffffffffffffffffffffffffffffffffffffff168273ffffffffffffffffffffffffffffffffffffffff16149050919050565b61098061097a6119dc565b82611a9d565b6109bf576040517f08c379a00000000000000000000000000000000000000000000000000000000081526004016109b690613a53565b60405180910390fd5b6109ca838383611b32565b505050565b6109ea83838360405180602001604052806000815250611285565b505050565b6109f7612e3e565b600b8383604051610a09929190613aa3565b90815260200160405180910390206040518060a0016040529081600082018054610a329061388b565b80601f0160208091040260200160405190810160405280929190818152602001828054610a5e9061388b565b8015610aab5780601f10610a8057610100808354040283529160200191610aab565b820191906000526020600020905b815481529060010190602001808311610a8e57829003601f168201915b5050505050815260200160018201548152602001600282015481526020016003820160009054906101000a900460ff1660ff1660ff168152602001600482018054610af59061388b565b80601f0160208091040260200160405190810160405280929190818152602001828054610b219061388b565b8015610b6e5780601f10610b4357610100808354040283529160200191610b6e565b820191906000526020600020905b815481529060010190602001808311610b5157829003601f168201915b505050505081525050905092915050565b6000600f905090565b6000806003600084815260200190815260200160002060009054906101000a900473ffffffffffffffffffffffffffffffffffffffff169050600073ffffffffffffffffffffffffffffffffffffffff168173ffffffffffffffffffffffffffffffffffffffff161415610c31576040517f08c379a0000000000000000000000000000000000000000000000000000000008152600401610c2890613b08565b60405180910390fd5b80915050919050565b610c42611d99565b8060098190555050565b60008073ffffffffffffffffffffffffffffffffffffffff168273ffffffffffffffffffffffffffffffffffffffff161415610cbd576040517f08c379a0000000000000000000000000000000000000000000000000000000008152600401610cb490613b9a565b60405180910390fd5b600460008373ffffffffffffffffffffffffffffffffffffffff1673ffffffffffffffffffffffffffffffffffffffff168152602001908152602001600020549050919050565b610d0c611d99565b610d166000611e17565b565b600081610d23610b7f565b42610d2e9190613be9565b11610d6e576040517f08c379a0000000000000000000000000000000000000000000000000000000008152600401610d6590613cb1565b60405180910390fd5b81421080610d8d5750610d7f61191e565b8242610d8b9190613cd1565b105b9050919050565b60006040518060a0016040528088888080601f016020809104026020016040519081016040528093929190818152602001838380828437600081840152601f19601f820116905080830192505050505050508152602001868152602001600081526020018560ff16815260200184848080601f016020809104026020016040519081016040528093929190818152602001838380828437600081840152601f19601f82011690508083019250505050505050815250905080600b8260000151604051610e609190613d36565b90815260200160405180910390206000820151816000019080519060200190610e8a929190612e70565b50602082015181600101556040820151816002015560608201518160030160006101000a81548160ff021916908360ff1602179055506080820151816004019080519060200190610edc929190612e70565b5090505050505050505050565b60008060009054906101000a900473ffffffffffffffffffffffffffffffffffffffff16905090565b606060028054610f219061388b565b80601f0160208091040260200160405190810160405280929190818152602001828054610f4d9061388b565b8015610f9a5780601f10610f6f57610100808354040283529160200191610f9a565b820191906000526020600020905b815481529060010190602001808311610f7d57829003601f168201915b5050505050905090565b6000600b8383604051610fb8929190613aa3565b908152602001604051809103902090506000610ff37f4554480000000000000000000000000000000000000000000000000000000000611edb565b9050670de0b6b3a764000081836001015461100e9190613d7c565b6110189190613dad565b34101561105a576040517f08c379a000000000000000000000000000000000000000000000000000000000815260040161105190613e53565b60405180910390fd5b60008260030160009054906101000a900460ff1660ff16116110b1576040517f08c379a00000000000000000000000000000000000000000000000000000000081526004016110a890613ebf565b60405180910390fd5b3073ffffffffffffffffffffffffffffffffffffffff166108fc349081150290604051600060405180830381858888f193505050501580156110f7573d6000803e3d6000fd5b5060008260030160009054906101000a900460ff1660ff16141561122f57600a60009054906101000a900473ffffffffffffffffffffffffffffffffffffffff1673ffffffffffffffffffffffffffffffffffffffff166108fc83600201549081150290604051600060405180830381858888f19350505050158015611181573d6000803e3d6000fd5b507f9ea274ade34969e9740a96a5c5d16ef0dc5cc6f86f1f8e808accc76327eba05833858585600201546040516111bb9493929190613f0c565b60405180910390a1600b84846040516111d5929190613aa3565b9081526020016040518091039020600080820160006111f49190612ef6565b600182016000905560028201600090556003820160006101000a81549060ff02191690556004820160006112289190612ef6565b5050611269565b7f4fc330fc2865a5bafe9f96d54262ddd229c3d6b4a9b37e66797f6a2e7a90bc703334604051611260929190613f4c565b60405180910390a15b50505050565b61128161127a6119dc565b8383611f77565b5050565b6112966112906119dc565b83611a9d565b6112d5576040517f08c379a00000000000000000000000000000000000000000000000000000000081526004016112cc90613a53565b60405180910390fd5b6112e1848484846120e4565b50505050565b60606112f282612140565b9050919050565b60095481565b6000600b8383604051611313929190613aa3565b908152602001604051809103902090508473ffffffffffffffffffffffffffffffffffffffff166370a08231336040518263ffffffff1660e01b815260040161135c9190613181565b60206040518083038186803b15801561137457600080fd5b505afa158015611388573d6000803e3d6000fd5b505050506040513d601f19601f820116820180604052508101906113ac9190613f8a565b8411156113ee576040517f08c379a00000000000000000000000000000000000000000000000000000000081526004016113e590614003565b60405180910390fd5b606460095482600101546114029190613dad565b61140c9190613d7c565b841461144d576040517f08c379a000000000000000000000000000000000000000000000000000000000815260040161144490613e53565b60405180910390fd5b60008160030160009054906101000a900460ff1660ff16116114a4576040517f08c379a000000000000000000000000000000000000000000000000000000000815260040161149b90613ebf565b60405180910390fd5b8473ffffffffffffffffffffffffffffffffffffffff166323b872dd3330876040518463ffffffff1660e01b81526004016114e193929190614023565b602060405180830381600087803b1580156114fb57600080fd5b505af115801561150f573d6000803e3d6000fd5b505050506040513d601f19601f82011682018060405250810190611533919061406f565b5061153e6008612253565b6115513361154c6008612269565b612277565b6115f061155e6008612269565b82600401805461156d9061388b565b80601f01602080910402602001604051908101604052809291908181526020018280546115999061388b565b80156115e65780601f106115bb576101008083540402835291602001916115e6565b820191906000526020600020905b8154815290600101906020018083116115c957829003601f168201915b5050505050612451565b80600301600081819054906101000a900460ff16809291906116119061409c565b91906101000a81548160ff021916908360ff160217905550508381600201600082825461163e9190613be9565b9250508190555060008160030160009054906101000a900460ff1660ff1614156117c5578473ffffffffffffffffffffffffffffffffffffffff166323b872dd30600a60009054906101000a900473ffffffffffffffffffffffffffffffffffffffff1684600201546040518463ffffffff1660e01b81526004016116c593929190614023565b602060405180830381600087803b1580156116df57600080fd5b505af11580156116f3573d6000803e3d6000fd5b505050506040513d601f19601f82011682018060405250810190611717919061406f565b507f9ea274ade34969e9740a96a5c5d16ef0dc5cc6f86f1f8e808accc76327eba05833848484600201546040516117519493929190613f0c565b60405180910390a1600b838360405161176b929190613aa3565b90815260200160405180910390206000808201600061178a9190612ef6565b600182016000905560028201600090556003820160006101000a81549060ff02191690556004820160006117be9190612ef6565b50506117ff565b7f4fc330fc2865a5bafe9f96d54262ddd229c3d6b4a9b37e66797f6a2e7a90bc7033856040516117f6929190613f4c565b60405180910390a15b5050505050565b6000600660008473ffffffffffffffffffffffffffffffffffffffff1673ffffffffffffffffffffffffffffffffffffffff16815260200190815260200160002060008373ffffffffffffffffffffffffffffffffffffffff1673ffffffffffffffffffffffffffffffffffffffff16815260200190815260200160002060009054906101000a900460ff16905092915050565b6118a2611d99565b600073ffffffffffffffffffffffffffffffffffffffff168173ffffffffffffffffffffffffffffffffffffffff161415611912576040517f08c379a000000000000000000000000000000000000000000000000000000000815260040161190990614138565b60405180910390fd5b61191b81611e17565b50565b600060b4905090565b60007f01ffc9a7000000000000000000000000000000000000000000000000000000007bffffffffffffffffffffffffffffffffffffffffffffffffffffffff1916827bffffffffffffffffffffffffffffffffffffffffffffffffffffffff1916149050919050565b61199a816124c5565b6119d9576040517f08c379a00000000000000000000000000000000000000000000000000000000081526004016119d090613b08565b60405180910390fd5b50565b600033905090565b816005600083815260200190815260200160002060006101000a81548173ffffffffffffffffffffffffffffffffffffffff021916908373ffffffffffffffffffffffffffffffffffffffff160217905550808273ffffffffffffffffffffffffffffffffffffffff16611a5783610b88565b73ffffffffffffffffffffffffffffffffffffffff167f8c5be1e5ebec7d5bd14f71427d1e84f3dd0314c0f7b2291e5b200ac8c7c3b92560405160405180910390a45050565b600080611aa983610b88565b90508073ffffffffffffffffffffffffffffffffffffffff168473ffffffffffffffffffffffffffffffffffffffff161480611aeb5750611aea8185611806565b5b80611b2957508373ffffffffffffffffffffffffffffffffffffffff16611b11846107c5565b73ffffffffffffffffffffffffffffffffffffffff16145b91505092915050565b8273ffffffffffffffffffffffffffffffffffffffff16611b5282610b88565b73ffffffffffffffffffffffffffffffffffffffff1614611ba8576040517f08c379a0000000000000000000000000000000000000000000000000000000008152600401611b9f906141ca565b60405180910390fd5b600073ffffffffffffffffffffffffffffffffffffffff168273ffffffffffffffffffffffffffffffffffffffff161415611c18576040517f08c379a0000000000000000000000000000000000000000000000000000000008152600401611c0f9061425c565b60405180910390fd5b611c23838383612531565b611c2e6000826119e4565b6001600460008573ffffffffffffffffffffffffffffffffffffffff1673ffffffffffffffffffffffffffffffffffffffff1681526020019081526020016000206000828254611c7e9190613cd1565b925050819055506001600460008473ffffffffffffffffffffffffffffffffffffffff1673ffffffffffffffffffffffffffffffffffffffff1681526020019081526020016000206000828254611cd59190613be9565b92505081905550816003600083815260200190815260200160002060006101000a81548173ffffffffffffffffffffffffffffffffffffffff021916908373ffffffffffffffffffffffffffffffffffffffff160217905550808273ffffffffffffffffffffffffffffffffffffffff168473ffffffffffffffffffffffffffffffffffffffff167fddf252ad1be2c89b69c2b068fc378daa952ba7f163c4a11628f55a4df523b3ef60405160405180910390a4611d94838383612536565b505050565b611da16119dc565b73ffffffffffffffffffffffffffffffffffffffff16611dbf610ee9565b73ffffffffffffffffffffffffffffffffffffffff1614611e15576040517f08c379a0000000000000000000000000000000000000000000000000000000008152600401611e0c906142c8565b60405180910390fd5b565b60008060009054906101000a900473ffffffffffffffffffffffffffffffffffffffff169050816000806101000a81548173ffffffffffffffffffffffffffffffffffffffff021916908373ffffffffffffffffffffffffffffffffffffffff1602179055508173ffffffffffffffffffffffffffffffffffffffff168173ffffffffffffffffffffffffffffffffffffffff167f8be0079c531659141344cd1fd0a4f28419497f9722a3daafe3b4186f6b6457e060405160405180910390a35050565b600080600167ffffffffffffffff811115611ef957611ef86135bc565b5b604051908082528060200260200182016040528015611f275781602001602082028036833780820191505090505b5090508281600081518110611f3f57611f3e6142e8565b5b602002602001018181525050611f548161253b565b600081518110611f6757611f666142e8565b5b6020026020010151915050919050565b8173ffffffffffffffffffffffffffffffffffffffff168373ffffffffffffffffffffffffffffffffffffffff161415611fe6576040517f08c379a0000000000000000000000000000000000000000000000000000000008152600401611fdd90614363565b60405180910390fd5b80600660008573ffffffffffffffffffffffffffffffffffffffff1673ffffffffffffffffffffffffffffffffffffffff16815260200190815260200160002060008473ffffffffffffffffffffffffffffffffffffffff1673ffffffffffffffffffffffffffffffffffffffff16815260200190815260200160002060006101000a81548160ff0219169083151502179055508173ffffffffffffffffffffffffffffffffffffffff168373ffffffffffffffffffffffffffffffffffffffff167f17307eab39ab6107e8899845ad3d59bd9653f200f220920489ca2b5937696c31836040516120d79190613007565b60405180910390a3505050565b6120ef848484611b32565b6120fb848484846126a3565b61213a576040517f08c379a0000000000000000000000000000000000000000000000000000000008152600401612131906143f5565b60405180910390fd5b50505050565b606061214b82611991565b600060076000848152602001908152602001600020805461216b9061388b565b80601f01602080910402602001604051908101604052809291908181526020018280546121979061388b565b80156121e45780601f106121b9576101008083540402835291602001916121e4565b820191906000526020600020905b8154815290600101906020018083116121c757829003601f168201915b5050505050905060006121f561283a565b905060008151141561220b57819250505061224e565b600082511115612240578082604051602001612228929190614415565b6040516020818303038152906040529250505061224e565b61224984612851565b925050505b919050565b6001816000016000828254019250508190555050565b600081600001549050919050565b600073ffffffffffffffffffffffffffffffffffffffff168273ffffffffffffffffffffffffffffffffffffffff1614156122e7576040517f08c379a00000000000000000000000000000000000000000000000000000000081526004016122de90614485565b60405180910390fd5b6122f0816124c5565b15612330576040517f08c379a0000000000000000000000000000000000000000000000000000000008152600401612327906144f1565b60405180910390fd5b61233c60008383612531565b6001600460008473ffffffffffffffffffffffffffffffffffffffff1673ffffffffffffffffffffffffffffffffffffffff168152602001908152602001600020600082825461238c9190613be9565b92505081905550816003600083815260200190815260200160002060006101000a81548173ffffffffffffffffffffffffffffffffffffffff021916908373ffffffffffffffffffffffffffffffffffffffff160217905550808273ffffffffffffffffffffffffffffffffffffffff16600073ffffffffffffffffffffffffffffffffffffffff167fddf252ad1be2c89b69c2b068fc378daa952ba7f163c4a11628f55a4df523b3ef60405160405180910390a461244d60008383612536565b5050565b61245a826124c5565b612499576040517f08c379a000000000000000000000000000000000000000000000000000000000815260040161249090614583565b60405180910390fd5b806007600084815260200190815260200160002090805190602001906124c0929190612e70565b505050565b60008073ffffffffffffffffffffffffffffffffffffffff166003600084815260200190815260200160002060009054906101000a900473ffffffffffffffffffffffffffffffffffffffff1673ffffffffffffffffffffffffffffffffffffffff1614159050919050565b505050565b505050565b60606000606136033590506000602060408360ff1661255a91906145b1565b61256491906145ed565b905060606040519050818152816042830136036020830137602081016040526000818051906020012090506000816040516020016125a2919061469c565b6040516020818303038152906040528051906020012090506060604051905060418152604180360360208301376020810160405260006125eb82846128b990919063ffffffff16565b90506125f681610923565b612635576040517f08c379a000000000000000000000000000000000000000000000000000000000815260040161262c9061470e565b60405180910390fd5b60006062360335905061264781610d18565b612686576040517f08c379a000000000000000000000000000000000000000000000000000000000815260040161267d9061477a565b60405180910390fd5b6126948a8960ff16896128e0565b98505050505050505050919050565b60006126c48473ffffffffffffffffffffffffffffffffffffffff16612986565b1561282d578373ffffffffffffffffffffffffffffffffffffffff1663150b7a026126ed6119dc565b8786866040518563ffffffff1660e01b815260040161270f94939291906147ef565b602060405180830381600087803b15801561272957600080fd5b505af192505050801561275a57506040513d601f19601f820116820180604052508101906127579190614850565b60015b6127dd573d806000811461278a576040519150601f19603f3d011682016040523d82523d6000602084013e61278f565b606091505b506000815114156127d5576040517f08c379a00000000000000000000000000000000000000000000000000000000081526004016127cc906143f5565b60405180910390fd5b805181602001fd5b63150b7a0260e01b7bffffffffffffffffffffffffffffffffffffffffffffffffffffffff1916817bffffffffffffffffffffffffffffffffffffffffffffffffffffffff191614915050612832565b600190505b949350505050565b606060405180602001604052806000815250905090565b606061285c82611991565b600061286661283a565b9050600081511161288657604051806020016040528060008152506128b1565b80612890846129a9565b6040516020016128a1929190614415565b6040516020818303038152906040525b915050919050565b60008060006128c88585612b0a565b915091506128d581612b5c565b819250505092915050565b6060806000806000806042870136035995508951865260208a51026020870101604052600094505b8951851015612976576020850260208b0101519150600093505b8884101561296b57816040850282013514156129535760206040850282010135602086026020880101526001830192505b8951831415612960578894505b600184019350612922565b600185019450612908565b5084955050505050509392505050565b6000808273ffffffffffffffffffffffffffffffffffffffff163b119050919050565b606060008214156129f1576040518060400160405280600181526020017f30000000000000000000000000000000000000000000000000000000000000008152509050612b05565b600082905060005b60008214612a23578080612a0c9061487d565b915050600a82612a1c9190613d7c565b91506129f9565b60008167ffffffffffffffff811115612a3f57612a3e6135bc565b5b6040519080825280601f01601f191660200182016040528015612a715781602001600182028036833780820191505090505b5090505b60008514612afe57600182612a8a9190613cd1565b9150600a85612a9991906148c6565b6030612aa59190613be9565b60f81b818381518110612abb57612aba6142e8565b5b60200101907effffffffffffffffffffffffffffffffffffffffffffffffffffffffffffff1916908160001a905350600a85612af79190613d7c565b9450612a75565b8093505050505b919050565b600080604183511415612b4c5760008060006020860151925060408601519150606086015160001a9050612b4087828585612d31565b94509450505050612b55565b60006002915091505b9250929050565b60006004811115612b7057612b6f6148f7565b5b816004811115612b8357612b826148f7565b5b1415612b8e57612d2e565b60016004811115612ba257612ba16148f7565b5b816004811115612bb557612bb46148f7565b5b1415612bf6576040517f08c379a0000000000000000000000000000000000000000000000000000000008152600401612bed90614972565b60405180910390fd5b60026004811115612c0a57612c096148f7565b5b816004811115612c1d57612c1c6148f7565b5b1415612c5e576040517f08c379a0000000000000000000000000000000000000000000000000000000008152600401612c55906149de565b60405180910390fd5b60036004811115612c7257612c716148f7565b5b816004811115612c8557612c846148f7565b5b1415612cc6576040517f08c379a0000000000000000000000000000000000000000000000000000000008152600401612cbd90614a70565b60405180910390fd5b600480811115612cd957612cd86148f7565b5b816004811115612cec57612ceb6148f7565b5b1415612d2d576040517f08c379a0000000000000000000000000000000000000000000000000000000008152600401612d2490614b02565b60405180910390fd5b5b50565b6000807f7fffffffffffffffffffffffffffffff5d576e7357a4501ddfe92f46681b20a08360001c1115612d6c576000600391509150612e35565b601b8560ff1614158015612d845750601c8560ff1614155b15612d96576000600491509150612e35565b600060018787878760405160008152602001604052604051612dbb9493929190614b40565b6020604051602081039080840390855afa158015612ddd573d6000803e3d6000fd5b505050602060405103519050600073ffffffffffffffffffffffffffffffffffffffff168173ffffffffffffffffffffffffffffffffffffffff161415612e2c57600060019250925050612e35565b80600092509250505b94509492505050565b6040518060a00160405280606081526020016000815260200160008152602001600060ff168152602001606081525090565b828054612e7c9061388b565b90600052602060002090601f016020900481019282612e9e5760008555612ee5565b82601f10612eb757805160ff1916838001178555612ee5565b82800160010185558215612ee5579182015b82811115612ee4578251825591602001919060010190612ec9565b5b509050612ef29190612f36565b5090565b508054612f029061388b565b6000825580601f10612f145750612f33565b601f016020900490600052602060002090810190612f329190612f36565b5b50565b5b80821115612f4f576000816000905550600101612f37565b5090565b6000604051905090565b600080fd5b600080fd5b60007fffffffff0000000000000000000000000000000000000000000000000000000082169050919050565b612f9c81612f67565b8114612fa757600080fd5b50565b600081359050612fb981612f93565b92915050565b600060208284031215612fd557612fd4612f5d565b5b6000612fe384828501612faa565b91505092915050565b60008115159050919050565b61300181612fec565b82525050565b600060208201905061301c6000830184612ff8565b92915050565b600081519050919050565b600082825260208201905092915050565b60005b8381101561305c578082015181840152602081019050613041565b8381111561306b576000848401525b50505050565b6000601f19601f8301169050919050565b600061308d82613022565b613097818561302d565b93506130a781856020860161303e565b6130b081613071565b840191505092915050565b600060208201905081810360008301526130d58184613082565b905092915050565b6000819050919050565b6130f0816130dd565b81146130fb57600080fd5b50565b60008135905061310d816130e7565b92915050565b60006020828403121561312957613128612f5d565b5b6000613137848285016130fe565b91505092915050565b600073ffffffffffffffffffffffffffffffffffffffff82169050919050565b600061316b82613140565b9050919050565b61317b81613160565b82525050565b60006020820190506131966000830184613172565b92915050565b6131a581613160565b81146131b057600080fd5b50565b6000813590506131c28161319c565b92915050565b600080604083850312156131df576131de612f5d565b5b60006131ed858286016131b3565b92505060206131fe858286016130fe565b9150509250929050565b60006020828403121561321e5761321d612f5d565b5b600061322c848285016131b3565b91505092915050565b60008060006060848603121561324e5761324d612f5d565b5b600061325c868287016131b3565b935050602061326d868287016131b3565b925050604061327e868287016130fe565b9150509250925092565b600080fd5b600080fd5b600080fd5b60008083601f8401126132ad576132ac613288565b5b8235905067ffffffffffffffff8111156132ca576132c961328d565b5b6020830191508360018202830111156132e6576132e5613292565b5b9250929050565b6000806020838503121561330457613303612f5d565b5b600083013567ffffffffffffffff81111561332257613321612f62565b5b61332e85828601613297565b92509250509250929050565b600082825260208201905092915050565b600061335682613022565b613360818561333a565b935061337081856020860161303e565b61337981613071565b840191505092915050565b61338d816130dd565b82525050565b600060ff82169050919050565b6133a981613393565b82525050565b600060a08301600083015184820360008601526133cc828261334b565b91505060208301516133e16020860182613384565b5060408301516133f46040860182613384565b50606083015161340760608601826133a0565b506080830151848203608086015261341f828261334b565b9150508091505092915050565b6000602082019050818103600083015261344681846133af565b905092915050565b613457816130dd565b82525050565b6000602082019050613472600083018461344e565b92915050565b61348181613393565b811461348c57600080fd5b50565b60008135905061349e81613478565b92915050565b600080600080600080608087890312156134c1576134c0612f5d565b5b600087013567ffffffffffffffff8111156134df576134de612f62565b5b6134eb89828a01613297565b965096505060206134fe89828a016130fe565b945050604061350f89828a0161348f565b935050606087013567ffffffffffffffff8111156135305761352f612f62565b5b61353c89828a01613297565b92509250509295509295509295565b61355481612fec565b811461355f57600080fd5b50565b6000813590506135718161354b565b92915050565b6000806040838503121561358e5761358d612f5d565b5b600061359c858286016131b3565b92505060206135ad85828601613562565b9150509250929050565b600080fd5b7f4e487b7100000000000000000000000000000000000000000000000000000000600052604160045260246000fd5b6135f482613071565b810181811067ffffffffffffffff82111715613613576136126135bc565b5b80604052505050565b6000613626612f53565b905061363282826135eb565b919050565b600067ffffffffffffffff821115613652576136516135bc565b5b61365b82613071565b9050602081019050919050565b82818337600083830152505050565b600061368a61368584613637565b61361c565b9050828152602081018484840111156136a6576136a56135b7565b5b6136b1848285613668565b509392505050565b600082601f8301126136ce576136cd613288565b5b81356136de848260208601613677565b91505092915050565b6000806000806080858703121561370157613700612f5d565b5b600061370f878288016131b3565b9450506020613720878288016131b3565b9350506040613731878288016130fe565b925050606085013567ffffffffffffffff81111561375257613751612f62565b5b61375e878288016136b9565b91505092959194509250565b600061377582613160565b9050919050565b6137858161376a565b811461379057600080fd5b50565b6000813590506137a28161377c565b92915050565b600080600080606085870312156137c2576137c1612f5d565b5b60006137d087828801613793565b94505060206137e1878288016130fe565b935050604085013567ffffffffffffffff81111561380257613801612f62565b5b61380e87828801613297565b925092505092959194509250565b6000806040838503121561383357613832612f5d565b5b6000613841858286016131b3565b9250506020613852858286016131b3565b9150509250929050565b7f4e487b7100000000000000000000000000000000000000000000000000000000600052602260045260246000fd5b600060028204905060018216806138a357607f821691505b602082108114156138b7576138b661385c565b5b50919050565b7f4552433732313a20617070726f76616c20746f2063757272656e74206f776e6560008201527f7200000000000000000000000000000000000000000000000000000000000000602082015250565b600061391960218361302d565b9150613924826138bd565b604082019050919050565b600060208201905081810360008301526139488161390c565b9050919050565b7f4552433732313a20617070726f76652063616c6c6572206973206e6f7420746f60008201527f6b656e206f776e6572206e6f7220617070726f76656420666f7220616c6c0000602082015250565b60006139ab603e8361302d565b91506139b68261394f565b604082019050919050565b600060208201905081810360008301526139da8161399e565b9050919050565b7f4552433732313a2063616c6c6572206973206e6f7420746f6b656e206f776e6560008201527f72206e6f7220617070726f766564000000000000000000000000000000000000602082015250565b6000613a3d602e8361302d565b9150613a48826139e1565b604082019050919050565b60006020820190508181036000830152613a6c81613a30565b9050919050565b600081905092915050565b6000613a8a8385613a73565b9350613a97838584613668565b82840190509392505050565b6000613ab0828486613a7e565b91508190509392505050565b7f4552433732313a20696e76616c696420746f6b656e2049440000000000000000600082015250565b6000613af260188361302d565b9150613afd82613abc565b602082019050919050565b60006020820190508181036000830152613b2181613ae5565b9050919050565b7f4552433732313a2061646472657373207a65726f206973206e6f74206120766160008201527f6c6964206f776e65720000000000000000000000000000000000000000000000602082015250565b6000613b8460298361302d565b9150613b8f82613b28565b604082019050919050565b60006020820190508181036000830152613bb381613b77565b9050919050565b7f4e487b7100000000000000000000000000000000000000000000000000000000600052601160045260246000fd5b6000613bf4826130dd565b9150613bff836130dd565b9250827fffffffffffffffffffffffffffffffffffffffffffffffffffffffffffffffff03821115613c3457613c33613bba565b5b828201905092915050565b7f446174612077697468206675747572652074696d657374616d7073206973206e60008201527f6f7420616c6c6f77656400000000000000000000000000000000000000000000602082015250565b6000613c9b602a8361302d565b9150613ca682613c3f565b604082019050919050565b60006020820190508181036000830152613cca81613c8e565b9050919050565b6000613cdc826130dd565b9150613ce7836130dd565b925082821015613cfa57613cf9613bba565b5b828203905092915050565b6000613d1082613022565b613d1a8185613a73565b9350613d2a81856020860161303e565b80840191505092915050565b6000613d428284613d05565b915081905092915050565b7f4e487b7100000000000000000000000000000000000000000000000000000000600052601260045260246000fd5b6000613d87826130dd565b9150613d92836130dd565b925082613da257613da1613d4d565b5b828204905092915050565b6000613db8826130dd565b9150613dc3836130dd565b9250817fffffffffffffffffffffffffffffffffffffffffffffffffffffffffffffffff0483118215151615613dfc57613dfb613bba565b5b828202905092915050565b7f77726f6e6720616d6f756e74206f6620746f6b656e7300000000000000000000600082015250565b6000613e3d60168361302d565b9150613e4882613e07565b602082019050919050565b60006020820190508181036000830152613e6c81613e30565b9050919050565b7f6e6f2073706f7473206c65667400000000000000000000000000000000000000600082015250565b6000613ea9600d8361302d565b9150613eb482613e73565b602082019050919050565b60006020820190508181036000830152613ed881613e9c565b9050919050565b6000613eeb838561302d565b9350613ef8838584613668565b613f0183613071565b840190509392505050565b6000606082019050613f216000830187613172565b8181036020830152613f34818587613edf565b9050613f43604083018461344e565b95945050505050565b6000604082019050613f616000830185613172565b613f6e602083018461344e565b9392505050565b600081519050613f84816130e7565b92915050565b600060208284031215613fa057613f9f612f5d565b5b6000613fae84828501613f75565b91505092915050565b7f62616c616e636520746f6f206c6f770000000000000000000000000000000000600082015250565b6000613fed600f8361302d565b9150613ff882613fb7565b602082019050919050565b6000602082019050818103600083015261401c81613fe0565b9050919050565b60006060820190506140386000830186613172565b6140456020830185613172565b614052604083018461344e565b949350505050565b6000815190506140698161354b565b92915050565b60006020828403121561408557614084612f5d565b5b60006140938482850161405a565b91505092915050565b60006140a782613393565b915060008214156140bb576140ba613bba565b5b600182039050919050565b7f4f776e61626c653a206e6577206f776e657220697320746865207a65726f206160008201527f6464726573730000000000000000000000000000000000000000000000000000602082015250565b600061412260268361302d565b915061412d826140c6565b604082019050919050565b6000602082019050818103600083015261415181614115565b9050919050565b7f4552433732313a207472616e736665722066726f6d20696e636f72726563742060008201527f6f776e6572000000000000000000000000000000000000000000000000000000602082015250565b60006141b460258361302d565b91506141bf82614158565b604082019050919050565b600060208201905081810360008301526141e3816141a7565b9050919050565b7f4552433732313a207472616e7366657220746f20746865207a65726f2061646460008201527f7265737300000000000000000000000000000000000000000000000000000000602082015250565b600061424660248361302d565b9150614251826141ea565b604082019050919050565b6000602082019050818103600083015261427581614239565b9050919050565b7f4f776e61626c653a2063616c6c6572206973206e6f7420746865206f776e6572600082015250565b60006142b260208361302d565b91506142bd8261427c565b602082019050919050565b600060208201905081810360008301526142e1816142a5565b9050919050565b7f4e487b7100000000000000000000000000000000000000000000000000000000600052603260045260246000fd5b7f4552433732313a20617070726f766520746f2063616c6c657200000000000000600082015250565b600061434d60198361302d565b915061435882614317565b602082019050919050565b6000602082019050818103600083015261437c81614340565b9050919050565b7f4552433732313a207472616e7366657220746f206e6f6e20455243373231526560008201527f63656976657220696d706c656d656e7465720000000000000000000000000000602082015250565b60006143df60328361302d565b91506143ea82614383565b604082019050919050565b6000602082019050818103600083015261440e816143d2565b9050919050565b60006144218285613d05565b915061442d8284613d05565b91508190509392505050565b7f4552433732313a206d696e7420746f20746865207a65726f2061646472657373600082015250565b600061446f60208361302d565b915061447a82614439565b602082019050919050565b6000602082019050818103600083015261449e81614462565b9050919050565b7f4552433732313a20746f6b656e20616c7265616479206d696e74656400000000600082015250565b60006144db601c8361302d565b91506144e6826144a5565b602082019050919050565b6000602082019050818103600083015261450a816144ce565b9050919050565b7f45524337323155524953746f726167653a2055524920736574206f66206e6f6e60008201527f6578697374656e7420746f6b656e000000000000000000000000000000000000602082015250565b600061456d602e8361302d565b915061457882614511565b604082019050919050565b6000602082019050818103600083015261459c81614560565b9050919050565b600061ffff82169050919050565b60006145bc826145a3565b91506145c7836145a3565b92508161ffff04831182151516156145e2576145e1613bba565b5b828202905092915050565b60006145f8826145a3565b9150614603836145a3565b92508261ffff0382111561461a57614619613bba565b5b828201905092915050565b7f19457468657265756d205369676e6564204d6573736167653a0a333200000000600082015250565b600061465b601c83613a73565b915061466682614625565b601c82019050919050565b6000819050919050565b6000819050919050565b61469661469182614671565b61467b565b82525050565b60006146a78261464e565b91506146b38284614685565b60208201915081905092915050565b7f5369676e6572206e6f7420617574686f72697a65640000000000000000000000600082015250565b60006146f860158361302d565b9150614703826146c2565b602082019050919050565b60006020820190508181036000830152614727816146eb565b9050919050565b7f446174612074696d657374616d7020697320696e76616c696400000000000000600082015250565b600061476460198361302d565b915061476f8261472e565b602082019050919050565b6000602082019050818103600083015261479381614757565b9050919050565b600081519050919050565b600082825260208201905092915050565b60006147c18261479a565b6147cb81856147a5565b93506147db81856020860161303e565b6147e481613071565b840191505092915050565b60006080820190506148046000830187613172565b6148116020830186613172565b61481e604083018561344e565b818103606083015261483081846147b6565b905095945050505050565b60008151905061484a81612f93565b92915050565b60006020828403121561486657614865612f5d565b5b60006148748482850161483b565b91505092915050565b6000614888826130dd565b91507fffffffffffffffffffffffffffffffffffffffffffffffffffffffffffffffff8214156148bb576148ba613bba565b5b600182019050919050565b60006148d1826130dd565b91506148dc836130dd565b9250826148ec576148eb613d4d565b5b828206905092915050565b7f4e487b7100000000000000000000000000000000000000000000000000000000600052602160045260246000fd5b7f45434453413a20696e76616c6964207369676e61747572650000000000000000600082015250565b600061495c60188361302d565b915061496782614926565b602082019050919050565b6000602082019050818103600083015261498b8161494f565b9050919050565b7f45434453413a20696e76616c6964207369676e6174757265206c656e67746800600082015250565b60006149c8601f8361302d565b91506149d382614992565b602082019050919050565b600060208201905081810360008301526149f7816149bb565b9050919050565b7f45434453413a20696e76616c6964207369676e6174757265202773272076616c60008201527f7565000000000000000000000000000000000000000000000000000000000000602082015250565b6000614a5a60228361302d565b9150614a65826149fe565b604082019050919050565b60006020820190508181036000830152614a8981614a4d565b9050919050565b7f45434453413a20696e76616c6964207369676e6174757265202776272076616c60008201527f7565000000000000000000000000000000000000000000000000000000000000602082015250565b6000614aec60228361302d565b9150614af782614a90565b604082019050919050565b60006020820190508181036000830152614b1b81614adf565b9050919050565b614b2b81614671565b82525050565b614b3a81613393565b82525050565b6000608082019050614b556000830187614b22565b614b626020830186614b31565b614b6f6040830185614b22565b614b7c6060830184614b22565b9594505050505056fea264697066735822122049f9bb1ca29c5041418f20b52b27a5ffd3d60f0ba67497e09999f4b6cd4568a264736f6c63430008090033",
  "linkReferences": {},
  "deployedLinkReferences": {}
}