{
  "_format": "hh-sol-artifact-1",
  "contractName": "Booker",
  "sourceName": "contracts/Booker.sol",
  "abi": [
    {
      "inputs": [],
      "stateMutability": "nonpayable",
      "type": "constructor"
    },
    {
      "anonymous": false,
      "inputs": [
        {
          "indexed": true,
          "internalType": "address",
          "name": "owner",
          "type": "address"
        },
        {
          "indexed": true,
          "internalType": "address",
          "name": "approved",
          "type": "address"
        },
        {
          "indexed": true,
          "internalType": "uint256",
          "name": "tokenId",
          "type": "uint256"
        }
      ],
      "name": "Approval",
      "type": "event"
    },
    {
      "anonymous": false,
      "inputs": [
        {
          "indexed": true,
          "internalType": "address",
          "name": "owner",
          "type": "address"
        },
        {
          "indexed": true,
          "internalType": "address",
          "name": "operator",
          "type": "address"
        },
        {
          "indexed": false,
          "internalType": "bool",
          "name": "approved",
          "type": "bool"
        }
      ],
      "name": "ApprovalForAll",
      "type": "event"
    },
    {
      "anonymous": false,
      "inputs": [
        {
          "indexed": false,
          "internalType": "address",
          "name": "user",
          "type": "address"
        },
        {
          "indexed": false,
          "internalType": "string",
          "name": "stayId",
          "type": "string"
        },
        {
          "indexed": false,
          "internalType": "uint256",
          "name": "value",
          "type": "uint256"
        }
      ],
      "name": "BookStay",
      "type": "event"
    },
    {
      "anonymous": false,
      "inputs": [
        {
          "indexed": false,
          "internalType": "address",
          "name": "user",
          "type": "address"
        },
        {
          "indexed": false,
          "internalType": "uint256",
          "name": "value",
          "type": "uint256"
        }
      ],
      "name": "JoinStay",
      "type": "event"
    },
    {
      "anonymous": false,
      "inputs": [
        {
          "indexed": true,
          "internalType": "address",
          "name": "previousOwner",
          "type": "address"
        },
        {
          "indexed": true,
          "internalType": "address",
          "name": "newOwner",
          "type": "address"
        }
      ],
      "name": "OwnershipTransferred",
      "type": "event"
    },
    {
      "anonymous": false,
      "inputs": [
        {
          "indexed": true,
          "internalType": "address",
          "name": "from",
          "type": "address"
        },
        {
          "indexed": true,
          "internalType": "address",
          "name": "to",
          "type": "address"
        },
        {
          "indexed": true,
          "internalType": "uint256",
          "name": "tokenId",
          "type": "uint256"
        }
      ],
      "name": "Transfer",
      "type": "event"
    },
    {
      "inputs": [
        {
          "internalType": "string",
          "name": "id",
          "type": "string"
        },
        {
          "internalType": "uint256",
          "name": "costPerPerson",
          "type": "uint256"
        },
        {
          "internalType": "uint8",
          "name": "spots",
          "type": "uint8"
        },
        {
          "internalType": "string",
          "name": "imageURL",
          "type": "string"
        }
      ],
      "name": "addStay",
      "outputs": [],
      "stateMutability": "nonpayable",
      "type": "function"
    },
    {
      "inputs": [
        {
          "internalType": "address",
          "name": "to",
          "type": "address"
        },
        {
          "internalType": "uint256",
          "name": "tokenId",
          "type": "uint256"
        }
      ],
      "name": "approve",
      "outputs": [],
      "stateMutability": "nonpayable",
      "type": "function"
    },
    {
      "inputs": [
        {
          "internalType": "address",
          "name": "owner",
          "type": "address"
        }
      ],
      "name": "balanceOf",
      "outputs": [
        {
          "internalType": "uint256",
          "name": "",
          "type": "uint256"
        }
      ],
      "stateMutability": "view",
      "type": "function"
    },
    {
      "inputs": [],
      "name": "fee",
      "outputs": [
        {
          "internalType": "uint256",
          "name": "",
          "type": "uint256"
        }
      ],
      "stateMutability": "view",
      "type": "function"
    },
    {
      "inputs": [
        {
          "internalType": "uint256",
          "name": "tokenId",
          "type": "uint256"
        }
      ],
      "name": "getApproved",
      "outputs": [
        {
          "internalType": "address",
          "name": "",
          "type": "address"
        }
      ],
      "stateMutability": "view",
      "type": "function"
    },
    {
      "inputs": [
        {
          "internalType": "string",
          "name": "id",
          "type": "string"
        }
      ],
      "name": "getStay",
      "outputs": [
        {
          "components": [
            {
              "internalType": "string",
              "name": "id",
              "type": "string"
            },
            {
              "internalType": "uint256",
              "name": "costPerPerson",
              "type": "uint256"
            },
            {
              "internalType": "uint256",
              "name": "fundsRaised",
              "type": "uint256"
            },
            {
              "internalType": "uint8",
              "name": "spots",
              "type": "uint8"
            },
            {
              "internalType": "string",
              "name": "imageURL",
              "type": "string"
            }
          ],
          "internalType": "struct Booker.Stay",
          "name": "",
          "type": "tuple"
        }
      ],
      "stateMutability": "view",
      "type": "function"
    },
    {
      "inputs": [
        {
          "internalType": "address",
          "name": "owner",
          "type": "address"
        },
        {
          "internalType": "address",
          "name": "operator",
          "type": "address"
        }
      ],
      "name": "isApprovedForAll",
      "outputs": [
        {
          "internalType": "bool",
          "name": "",
          "type": "bool"
        }
      ],
      "stateMutability": "view",
      "type": "function"
    },
    {
      "inputs": [
        {
          "internalType": "contract IERC20",
          "name": "token",
          "type": "address"
        },
        {
          "internalType": "uint256",
          "name": "amount",
          "type": "uint256"
        },
        {
          "internalType": "string",
          "name": "stayId",
          "type": "string"
        }
      ],
      "name": "joinStay",
      "outputs": [],
      "stateMutability": "nonpayable",
      "type": "function"
    },
    {
      "inputs": [
        {
          "internalType": "string",
          "name": "stayId",
          "type": "string"
        }
      ],
      "name": "joinWithETH",
      "outputs": [],
      "stateMutability": "payable",
      "type": "function"
    },
    {
      "inputs": [],
      "name": "name",
      "outputs": [
        {
          "internalType": "string",
          "name": "",
          "type": "string"
        }
      ],
      "stateMutability": "view",
      "type": "function"
    },
    {
      "inputs": [],
      "name": "owner",
      "outputs": [
        {
          "internalType": "address",
          "name": "",
          "type": "address"
        }
      ],
      "stateMutability": "view",
      "type": "function"
    },
    {
      "inputs": [
        {
          "internalType": "uint256",
          "name": "tokenId",
          "type": "uint256"
        }
      ],
      "name": "ownerOf",
      "outputs": [
        {
          "internalType": "address",
          "name": "",
          "type": "address"
        }
      ],
      "stateMutability": "view",
      "type": "function"
    },
    {
      "inputs": [],
      "name": "renounceOwnership",
      "outputs": [],
      "stateMutability": "nonpayable",
      "type": "function"
    },
    {
      "inputs": [
        {
          "internalType": "address",
          "name": "from",
          "type": "address"
        },
        {
          "internalType": "address",
          "name": "to",
          "type": "address"
        },
        {
          "internalType": "uint256",
          "name": "tokenId",
          "type": "uint256"
        }
      ],
      "name": "safeTransferFrom",
      "outputs": [],
      "stateMutability": "nonpayable",
      "type": "function"
    },
    {
      "inputs": [
        {
          "internalType": "address",
          "name": "from",
          "type": "address"
        },
        {
          "internalType": "address",
          "name": "to",
          "type": "address"
        },
        {
          "internalType": "uint256",
          "name": "tokenId",
          "type": "uint256"
        },
        {
          "internalType": "bytes",
          "name": "data",
          "type": "bytes"
        }
      ],
      "name": "safeTransferFrom",
      "outputs": [],
      "stateMutability": "nonpayable",
      "type": "function"
    },
    {
      "inputs": [
        {
          "internalType": "address",
          "name": "operator",
          "type": "address"
        },
        {
          "internalType": "bool",
          "name": "approved",
          "type": "bool"
        }
      ],
      "name": "setApprovalForAll",
      "outputs": [],
      "stateMutability": "nonpayable",
      "type": "function"
    },
    {
      "inputs": [
        {
          "internalType": "uint256",
          "name": "feePercentage",
          "type": "uint256"
        }
      ],
      "name": "setFee",
      "outputs": [],
      "stateMutability": "nonpayable",
      "type": "function"
    },
    {
      "inputs": [
        {
          "internalType": "bytes4",
          "name": "interfaceId",
          "type": "bytes4"
        }
      ],
      "name": "supportsInterface",
      "outputs": [
        {
          "internalType": "bool",
          "name": "",
          "type": "bool"
        }
      ],
      "stateMutability": "view",
      "type": "function"
    },
    {
      "inputs": [],
      "name": "symbol",
      "outputs": [
        {
          "internalType": "string",
          "name": "",
          "type": "string"
        }
      ],
      "stateMutability": "view",
      "type": "function"
    },
    {
      "inputs": [
        {
          "internalType": "uint256",
          "name": "tokenId",
          "type": "uint256"
        }
      ],
      "name": "tokenURI",
      "outputs": [
        {
          "internalType": "string",
          "name": "",
          "type": "string"
        }
      ],
      "stateMutability": "view",
      "type": "function"
    },
    {
      "inputs": [
        {
          "internalType": "address",
          "name": "from",
          "type": "address"
        },
        {
          "internalType": "address",
          "name": "to",
          "type": "address"
        },
        {
          "internalType": "uint256",
          "name": "tokenId",
          "type": "uint256"
        }
      ],
      "name": "transferFrom",
      "outputs": [],
      "stateMutability": "nonpayable",
      "type": "function"
    },
    {
      "inputs": [
        {
          "internalType": "address",
          "name": "newOwner",
          "type": "address"
        }
      ],
      "name": "transferOwnership",
      "outputs": [],
      "stateMutability": "nonpayable",
      "type": "function"
    }
  ],
  "bytecode": "0x60806040523480156200001157600080fd5b506040518060400160405280600981526020017f53746179546f6b656e00000000000000000000000000000000000000000000008152506040518060400160405280600381526020017f53545600000000000000000000000000000000000000000000000000000000008152506200009e620000926200012160201b60201c565b6200012960201b60201c565b8160019080519060200190620000b6929190620001ed565b508060029080519060200190620000cf929190620001ed565b505050606860098190555033600a60006101000a81548173ffffffffffffffffffffffffffffffffffffffff021916908373ffffffffffffffffffffffffffffffffffffffff16021790555062000302565b600033905090565b60008060009054906101000a900473ffffffffffffffffffffffffffffffffffffffff169050816000806101000a81548173ffffffffffffffffffffffffffffffffffffffff021916908373ffffffffffffffffffffffffffffffffffffffff1602179055508173ffffffffffffffffffffffffffffffffffffffff168173ffffffffffffffffffffffffffffffffffffffff167f8be0079c531659141344cd1fd0a4f28419497f9722a3daafe3b4186f6b6457e060405160405180910390a35050565b828054620001fb90620002cc565b90600052602060002090601f0160209004810192826200021f57600085556200026b565b82601f106200023a57805160ff19168380011785556200026b565b828001600101855582156200026b579182015b828111156200026a5782518255916020019190600101906200024d565b5b5090506200027a91906200027e565b5090565b5b80821115620002995760008160009055506001016200027f565b5090565b7f4e487b7100000000000000000000000000000000000000000000000000000000600052602260045260246000fd5b60006002820490506001821680620002e557607f821691505b60208210811415620002fc57620002fb6200029d565b5b50919050565b613e7580620003126000396000f3fe6080604052600436106101355760003560e01c8063715018a6116100ab578063a22cb4651161006f578063a22cb46514610415578063b88d4fde1461043e578063c87b56dd14610467578063ddca3f43146104a4578063e985e9c5146104cf578063f2fde38b1461050c57610135565b8063715018a6146103635780637d5094ce1461037a5780638da5cb5b146103a357806395d89b41146103ce578063963a7c1e146103f957610135565b806342842e0e116100fd57806342842e0e146102315780634bd314e21461025a5780635fe9ca52146102975780636352211e146102c057806369fe0e2d146102fd57806370a082311461032657610135565b806301ffc9a71461013a57806306fdde0314610177578063081812fc146101a2578063095ea7b3146101df57806323b872dd14610208575b600080fd5b34801561014657600080fd5b50610161600480360381019061015c9190612790565b610535565b60405161016e91906127d8565b60405180910390f35b34801561018357600080fd5b5061018c610617565b604051610199919061288c565b60405180910390f35b3480156101ae57600080fd5b506101c960048036038101906101c491906128e4565b6106a9565b6040516101d69190612952565b60405180910390f35b3480156101eb57600080fd5b5061020660048036038101906102019190612999565b6106ef565b005b34801561021457600080fd5b5061022f600480360381019061022a91906129d9565b610807565b005b34801561023d57600080fd5b50610258600480360381019061025391906129d9565b610867565b005b34801561026657600080fd5b50610281600480360381019061027c9190612a91565b610887565b60405161028e9190612bd0565b60405180910390f35b3480156102a357600080fd5b506102be60048036038101906102b99190612c30565b610a17565b005b3480156102cc57600080fd5b506102e760048036038101906102e291906128e4565b610f1e565b6040516102f49190612952565b60405180910390f35b34801561030957600080fd5b50610324600480360381019061031f91906128e4565b610fd0565b005b34801561033257600080fd5b5061034d60048036038101906103489190612ca4565b610fe2565b60405161035a9190612ce0565b60405180910390f35b34801561036f57600080fd5b5061037861109a565b005b34801561038657600080fd5b506103a1600480360381019061039c9190612d27565b6110ae565b005b3480156103af57600080fd5b506103b8611203565b6040516103c59190612952565b60405180910390f35b3480156103da57600080fd5b506103e361122c565b6040516103f0919061288c565b60405180910390f35b610413600480360381019061040e9190612a91565b6112be565b005b34801561042157600080fd5b5061043c60048036038101906104379190612dfa565b611555565b005b34801561044a57600080fd5b5061046560048036038101906104609190612f6a565b61156b565b005b34801561047357600080fd5b5061048e600480360381019061048991906128e4565b6115cd565b60405161049b919061288c565b60405180910390f35b3480156104b057600080fd5b506104b96115df565b6040516104c69190612ce0565b60405180910390f35b3480156104db57600080fd5b506104f660048036038101906104f19190612fed565b6115e5565b60405161050391906127d8565b60405180910390f35b34801561051857600080fd5b50610533600480360381019061052e9190612ca4565b611679565b005b60007f80ac58cd000000000000000000000000000000000000000000000000000000007bffffffffffffffffffffffffffffffffffffffffffffffffffffffff1916827bffffffffffffffffffffffffffffffffffffffffffffffffffffffff1916148061060057507f5b5e139f000000000000000000000000000000000000000000000000000000007bffffffffffffffffffffffffffffffffffffffffffffffffffffffff1916827bffffffffffffffffffffffffffffffffffffffffffffffffffffffff1916145b80610610575061060f826116fd565b5b9050919050565b6060600180546106269061305c565b80601f01602080910402602001604051908101604052809291908181526020018280546106529061305c565b801561069f5780601f106106745761010080835404028352916020019161069f565b820191906000526020600020905b81548152906001019060200180831161068257829003601f168201915b5050505050905090565b60006106b482611767565b6005600083815260200190815260200160002060009054906101000a900473ffffffffffffffffffffffffffffffffffffffff169050919050565b60006106fa82610f1e565b90508073ffffffffffffffffffffffffffffffffffffffff168373ffffffffffffffffffffffffffffffffffffffff16141561076b576040517f08c379a000000000000000000000000000000000000000000000000000000000815260040161076290613100565b60405180910390fd5b8073ffffffffffffffffffffffffffffffffffffffff1661078a6117b2565b73ffffffffffffffffffffffffffffffffffffffff1614806107b957506107b8816107b36117b2565b6115e5565b5b6107f8576040517f08c379a00000000000000000000000000000000000000000000000000000000081526004016107ef90613192565b60405180910390fd5b61080283836117ba565b505050565b6108186108126117b2565b82611873565b610857576040517f08c379a000000000000000000000000000000000000000000000000000000000815260040161084e90613224565b60405180910390fd5b610862838383611908565b505050565b6108828383836040518060200160405280600081525061156b565b505050565b61088f61260f565b600b83836040516108a1929190613274565b90815260200160405180910390206040518060a00160405290816000820180546108ca9061305c565b80601f01602080910402602001604051908101604052809291908181526020018280546108f69061305c565b80156109435780601f1061091857610100808354040283529160200191610943565b820191906000526020600020905b81548152906001019060200180831161092657829003601f168201915b5050505050815260200160018201548152602001600282015481526020016003820160009054906101000a900460ff1660ff1660ff16815260200160048201805461098d9061305c565b80601f01602080910402602001604051908101604052809291908181526020018280546109b99061305c565b8015610a065780601f106109db57610100808354040283529160200191610a06565b820191906000526020600020905b8154815290600101906020018083116109e957829003601f168201915b505050505081525050905092915050565b6000600b8383604051610a2b929190613274565b908152602001604051809103902090508473ffffffffffffffffffffffffffffffffffffffff166370a08231336040518263ffffffff1660e01b8152600401610a749190612952565b60206040518083038186803b158015610a8c57600080fd5b505afa158015610aa0573d6000803e3d6000fd5b505050506040513d601f19601f82011682018060405250810190610ac491906132a2565b841115610b06576040517f08c379a0000000000000000000000000000000000000000000000000000000008152600401610afd9061331b565b60405180910390fd5b60646009548260010154610b1a919061336a565b610b2491906133f3565b8414610b65576040517f08c379a0000000000000000000000000000000000000000000000000000000008152600401610b5c90613470565b60405180910390fd5b60008160030160009054906101000a900460ff1660ff1611610bbc576040517f08c379a0000000000000000000000000000000000000000000000000000000008152600401610bb3906134dc565b60405180910390fd5b8473ffffffffffffffffffffffffffffffffffffffff166323b872dd3330876040518463ffffffff1660e01b8152600401610bf9939291906134fc565b602060405180830381600087803b158015610c1357600080fd5b505af1158015610c27573d6000803e3d6000fd5b505050506040513d601f19601f82011682018060405250810190610c4b9190613548565b50610c566008611b6f565b610c6933610c646008611b85565b611b93565b610d08610c766008611b85565b826004018054610c859061305c565b80601f0160208091040260200160405190810160405280929190818152602001828054610cb19061305c565b8015610cfe5780601f10610cd357610100808354040283529160200191610cfe565b820191906000526020600020905b815481529060010190602001808311610ce157829003601f168201915b5050505050611d6d565b80600301600081819054906101000a900460ff1680929190610d2990613575565b91906101000a81548160ff021916908360ff1602179055505083816002016000828254610d56919061359f565b9250508190555060008160030160009054906101000a900460ff1660ff161415610edd578473ffffffffffffffffffffffffffffffffffffffff166323b872dd30600a60009054906101000a900473ffffffffffffffffffffffffffffffffffffffff1684600201546040518463ffffffff1660e01b8152600401610ddd939291906134fc565b602060405180830381600087803b158015610df757600080fd5b505af1158015610e0b573d6000803e3d6000fd5b505050506040513d601f19601f82011682018060405250810190610e2f9190613548565b507f9ea274ade34969e9740a96a5c5d16ef0dc5cc6f86f1f8e808accc76327eba0583384848460020154604051610e699493929190613622565b60405180910390a1600b8383604051610e83929190613274565b908152602001604051809103902060008082016000610ea29190612641565b600182016000905560028201600090556003820160006101000a81549060ff0219169055600482016000610ed69190612641565b5050610f17565b7f4fc330fc2865a5bafe9f96d54262ddd229c3d6b4a9b37e66797f6a2e7a90bc703385604051610f0e929190613662565b60405180910390a15b5050505050565b6000806003600084815260200190815260200160002060009054906101000a900473ffffffffffffffffffffffffffffffffffffffff169050600073ffffffffffffffffffffffffffffffffffffffff168173ffffffffffffffffffffffffffffffffffffffff161415610fc7576040517f08c379a0000000000000000000000000000000000000000000000000000000008152600401610fbe906136d7565b60405180910390fd5b80915050919050565b610fd8611de1565b8060098190555050565b60008073ffffffffffffffffffffffffffffffffffffffff168273ffffffffffffffffffffffffffffffffffffffff161415611053576040517f08c379a000000000000000000000000000000000000000000000000000000000815260040161104a90613769565b60405180910390fd5b600460008373ffffffffffffffffffffffffffffffffffffffff1673ffffffffffffffffffffffffffffffffffffffff168152602001908152602001600020549050919050565b6110a2611de1565b6110ac6000611e5f565b565b60006040518060a0016040528088888080601f016020809104026020016040519081016040528093929190818152602001838380828437600081840152601f19601f820116905080830192505050505050508152602001868152602001600081526020018560ff16815260200184848080601f016020809104026020016040519081016040528093929190818152602001838380828437600081840152601f19601f82011690508083019250505050505050815250905080600b826000015160405161117a91906137ba565b908152602001604051809103902060008201518160000190805190602001906111a4929190612681565b50602082015181600101556040820151816002015560608201518160030160006101000a81548160ff021916908360ff16021790555060808201518160040190805190602001906111f6929190612681565b5090505050505050505050565b60008060009054906101000a900473ffffffffffffffffffffffffffffffffffffffff16905090565b60606002805461123b9061305c565b80601f01602080910402602001604051908101604052809291908181526020018280546112679061305c565b80156112b45780601f10611289576101008083540402835291602001916112b4565b820191906000526020600020905b81548152906001019060200180831161129757829003601f168201915b5050505050905090565b6000600b83836040516112d2929190613274565b90815260200160405180910390209050606460095482600101546112f6919061336a565b61130091906133f3565b3414611341576040517f08c379a000000000000000000000000000000000000000000000000000000000815260040161133890613470565b60405180910390fd5b60008160030160009054906101000a900460ff1660ff1611611398576040517f08c379a000000000000000000000000000000000000000000000000000000000815260040161138f906134dc565b60405180910390fd5b3073ffffffffffffffffffffffffffffffffffffffff166108fc349081150290604051600060405180830381858888f193505050501580156113de573d6000803e3d6000fd5b5060008160030160009054906101000a900460ff1660ff16141561151657600a60009054906101000a900473ffffffffffffffffffffffffffffffffffffffff1673ffffffffffffffffffffffffffffffffffffffff166108fc82600201549081150290604051600060405180830381858888f19350505050158015611468573d6000803e3d6000fd5b507f9ea274ade34969e9740a96a5c5d16ef0dc5cc6f86f1f8e808accc76327eba05833848484600201546040516114a29493929190613622565b60405180910390a1600b83836040516114bc929190613274565b9081526020016040518091039020600080820160006114db9190612641565b600182016000905560028201600090556003820160006101000a81549060ff021916905560048201600061150f9190612641565b5050611550565b7f4fc330fc2865a5bafe9f96d54262ddd229c3d6b4a9b37e66797f6a2e7a90bc703334604051611547929190613662565b60405180910390a15b505050565b6115676115606117b2565b8383611f23565b5050565b61157c6115766117b2565b83611873565b6115bb576040517f08c379a00000000000000000000000000000000000000000000000000000000081526004016115b290613224565b60405180910390fd5b6115c784848484612090565b50505050565b60606115d8826120ec565b9050919050565b60095481565b6000600660008473ffffffffffffffffffffffffffffffffffffffff1673ffffffffffffffffffffffffffffffffffffffff16815260200190815260200160002060008373ffffffffffffffffffffffffffffffffffffffff1673ffffffffffffffffffffffffffffffffffffffff16815260200190815260200160002060009054906101000a900460ff16905092915050565b611681611de1565b600073ffffffffffffffffffffffffffffffffffffffff168173ffffffffffffffffffffffffffffffffffffffff1614156116f1576040517f08c379a00000000000000000000000000000000000000000000000000000000081526004016116e890613843565b60405180910390fd5b6116fa81611e5f565b50565b60007f01ffc9a7000000000000000000000000000000000000000000000000000000007bffffffffffffffffffffffffffffffffffffffffffffffffffffffff1916827bffffffffffffffffffffffffffffffffffffffffffffffffffffffff1916149050919050565b611770816121ff565b6117af576040517f08c379a00000000000000000000000000000000000000000000000000000000081526004016117a6906136d7565b60405180910390fd5b50565b600033905090565b816005600083815260200190815260200160002060006101000a81548173ffffffffffffffffffffffffffffffffffffffff021916908373ffffffffffffffffffffffffffffffffffffffff160217905550808273ffffffffffffffffffffffffffffffffffffffff1661182d83610f1e565b73ffffffffffffffffffffffffffffffffffffffff167f8c5be1e5ebec7d5bd14f71427d1e84f3dd0314c0f7b2291e5b200ac8c7c3b92560405160405180910390a45050565b60008061187f83610f1e565b90508073ffffffffffffffffffffffffffffffffffffffff168473ffffffffffffffffffffffffffffffffffffffff1614806118c157506118c081856115e5565b5b806118ff57508373ffffffffffffffffffffffffffffffffffffffff166118e7846106a9565b73ffffffffffffffffffffffffffffffffffffffff16145b91505092915050565b8273ffffffffffffffffffffffffffffffffffffffff1661192882610f1e565b73ffffffffffffffffffffffffffffffffffffffff161461197e576040517f08c379a0000000000000000000000000000000000000000000000000000000008152600401611975906138d5565b60405180910390fd5b600073ffffffffffffffffffffffffffffffffffffffff168273ffffffffffffffffffffffffffffffffffffffff1614156119ee576040517f08c379a00000000000000000000000000000000000000000000000000000000081526004016119e590613967565b60405180910390fd5b6119f983838361226b565b611a046000826117ba565b6001600460008573ffffffffffffffffffffffffffffffffffffffff1673ffffffffffffffffffffffffffffffffffffffff1681526020019081526020016000206000828254611a549190613987565b925050819055506001600460008473ffffffffffffffffffffffffffffffffffffffff1673ffffffffffffffffffffffffffffffffffffffff1681526020019081526020016000206000828254611aab919061359f565b92505081905550816003600083815260200190815260200160002060006101000a81548173ffffffffffffffffffffffffffffffffffffffff021916908373ffffffffffffffffffffffffffffffffffffffff160217905550808273ffffffffffffffffffffffffffffffffffffffff168473ffffffffffffffffffffffffffffffffffffffff167fddf252ad1be2c89b69c2b068fc378daa952ba7f163c4a11628f55a4df523b3ef60405160405180910390a4611b6a838383612270565b505050565b6001816000016000828254019250508190555050565b600081600001549050919050565b600073ffffffffffffffffffffffffffffffffffffffff168273ffffffffffffffffffffffffffffffffffffffff161415611c03576040517f08c379a0000000000000000000000000000000000000000000000000000000008152600401611bfa90613a07565b60405180910390fd5b611c0c816121ff565b15611c4c576040517f08c379a0000000000000000000000000000000000000000000000000000000008152600401611c4390613a73565b60405180910390fd5b611c586000838361226b565b6001600460008473ffffffffffffffffffffffffffffffffffffffff1673ffffffffffffffffffffffffffffffffffffffff1681526020019081526020016000206000828254611ca8919061359f565b92505081905550816003600083815260200190815260200160002060006101000a81548173ffffffffffffffffffffffffffffffffffffffff021916908373ffffffffffffffffffffffffffffffffffffffff160217905550808273ffffffffffffffffffffffffffffffffffffffff16600073ffffffffffffffffffffffffffffffffffffffff167fddf252ad1be2c89b69c2b068fc378daa952ba7f163c4a11628f55a4df523b3ef60405160405180910390a4611d6960008383612270565b5050565b611d76826121ff565b611db5576040517f08c379a0000000000000000000000000000000000000000000000000000000008152600401611dac90613b05565b60405180910390fd5b80600760008481526020019081526020016000209080519060200190611ddc929190612681565b505050565b611de96117b2565b73ffffffffffffffffffffffffffffffffffffffff16611e07611203565b73ffffffffffffffffffffffffffffffffffffffff1614611e5d576040517f08c379a0000000000000000000000000000000000000000000000000000000008152600401611e5490613b71565b60405180910390fd5b565b60008060009054906101000a900473ffffffffffffffffffffffffffffffffffffffff169050816000806101000a81548173ffffffffffffffffffffffffffffffffffffffff021916908373ffffffffffffffffffffffffffffffffffffffff1602179055508173ffffffffffffffffffffffffffffffffffffffff168173ffffffffffffffffffffffffffffffffffffffff167f8be0079c531659141344cd1fd0a4f28419497f9722a3daafe3b4186f6b6457e060405160405180910390a35050565b8173ffffffffffffffffffffffffffffffffffffffff168373ffffffffffffffffffffffffffffffffffffffff161415611f92576040517f08c379a0000000000000000000000000000000000000000000000000000000008152600401611f8990613bdd565b60405180910390fd5b80600660008573ffffffffffffffffffffffffffffffffffffffff1673ffffffffffffffffffffffffffffffffffffffff16815260200190815260200160002060008473ffffffffffffffffffffffffffffffffffffffff1673ffffffffffffffffffffffffffffffffffffffff16815260200190815260200160002060006101000a81548160ff0219169083151502179055508173ffffffffffffffffffffffffffffffffffffffff168373ffffffffffffffffffffffffffffffffffffffff167f17307eab39ab6107e8899845ad3d59bd9653f200f220920489ca2b5937696c318360405161208391906127d8565b60405180910390a3505050565b61209b848484611908565b6120a784848484612275565b6120e6576040517f08c379a00000000000000000000000000000000000000000000000000000000081526004016120dd90613c6f565b60405180910390fd5b50505050565b60606120f782611767565b60006007600084815260200190815260200160002080546121179061305c565b80601f01602080910402602001604051908101604052809291908181526020018280546121439061305c565b80156121905780601f1061216557610100808354040283529160200191612190565b820191906000526020600020905b81548152906001019060200180831161217357829003601f168201915b5050505050905060006121a161240c565b90506000815114156121b75781925050506121fa565b6000825111156121ec5780826040516020016121d4929190613c8f565b604051602081830303815290604052925050506121fa565b6121f584612423565b925050505b919050565b60008073ffffffffffffffffffffffffffffffffffffffff166003600084815260200190815260200160002060009054906101000a900473ffffffffffffffffffffffffffffffffffffffff1673ffffffffffffffffffffffffffffffffffffffff1614159050919050565b505050565b505050565b60006122968473ffffffffffffffffffffffffffffffffffffffff1661248b565b156123ff578373ffffffffffffffffffffffffffffffffffffffff1663150b7a026122bf6117b2565b8786866040518563ffffffff1660e01b81526004016122e19493929190613d08565b602060405180830381600087803b1580156122fb57600080fd5b505af192505050801561232c57506040513d601f19601f820116820180604052508101906123299190613d69565b60015b6123af573d806000811461235c576040519150601f19603f3d011682016040523d82523d6000602084013e612361565b606091505b506000815114156123a7576040517f08c379a000000000000000000000000000000000000000000000000000000000815260040161239e90613c6f565b60405180910390fd5b805181602001fd5b63150b7a0260e01b7bffffffffffffffffffffffffffffffffffffffffffffffffffffffff1916817bffffffffffffffffffffffffffffffffffffffffffffffffffffffff191614915050612404565b600190505b949350505050565b606060405180602001604052806000815250905090565b606061242e82611767565b600061243861240c565b905060008151116124585760405180602001604052806000815250612483565b80612462846124ae565b604051602001612473929190613c8f565b6040516020818303038152906040525b915050919050565b6000808273ffffffffffffffffffffffffffffffffffffffff163b119050919050565b606060008214156124f6576040518060400160405280600181526020017f3000000000000000000000000000000000000000000000000000000000000000815250905061260a565b600082905060005b6000821461252857808061251190613d96565b915050600a8261252191906133f3565b91506124fe565b60008167ffffffffffffffff81111561254457612543612e3f565b5b6040519080825280601f01601f1916602001820160405280156125765781602001600182028036833780820191505090505b5090505b600085146126035760018261258f9190613987565b9150600a8561259e9190613ddf565b60306125aa919061359f565b60f81b8183815181106125c0576125bf613e10565b5b60200101907effffffffffffffffffffffffffffffffffffffffffffffffffffffffffffff1916908160001a905350600a856125fc91906133f3565b945061257a565b8093505050505b919050565b6040518060a00160405280606081526020016000815260200160008152602001600060ff168152602001606081525090565b50805461264d9061305c565b6000825580601f1061265f575061267e565b601f01602090049060005260206000209081019061267d9190612707565b5b50565b82805461268d9061305c565b90600052602060002090601f0160209004810192826126af57600085556126f6565b82601f106126c857805160ff19168380011785556126f6565b828001600101855582156126f6579182015b828111156126f55782518255916020019190600101906126da565b5b5090506127039190612707565b5090565b5b80821115612720576000816000905550600101612708565b5090565b6000604051905090565b600080fd5b600080fd5b60007fffffffff0000000000000000000000000000000000000000000000000000000082169050919050565b61276d81612738565b811461277857600080fd5b50565b60008135905061278a81612764565b92915050565b6000602082840312156127a6576127a561272e565b5b60006127b48482850161277b565b91505092915050565b60008115159050919050565b6127d2816127bd565b82525050565b60006020820190506127ed60008301846127c9565b92915050565b600081519050919050565b600082825260208201905092915050565b60005b8381101561282d578082015181840152602081019050612812565b8381111561283c576000848401525b50505050565b6000601f19601f8301169050919050565b600061285e826127f3565b61286881856127fe565b935061287881856020860161280f565b61288181612842565b840191505092915050565b600060208201905081810360008301526128a68184612853565b905092915050565b6000819050919050565b6128c1816128ae565b81146128cc57600080fd5b50565b6000813590506128de816128b8565b92915050565b6000602082840312156128fa576128f961272e565b5b6000612908848285016128cf565b91505092915050565b600073ffffffffffffffffffffffffffffffffffffffff82169050919050565b600061293c82612911565b9050919050565b61294c81612931565b82525050565b60006020820190506129676000830184612943565b92915050565b61297681612931565b811461298157600080fd5b50565b6000813590506129938161296d565b92915050565b600080604083850312156129b0576129af61272e565b5b60006129be85828601612984565b92505060206129cf858286016128cf565b9150509250929050565b6000806000606084860312156129f2576129f161272e565b5b6000612a0086828701612984565b9350506020612a1186828701612984565b9250506040612a22868287016128cf565b9150509250925092565b600080fd5b600080fd5b600080fd5b60008083601f840112612a5157612a50612a2c565b5b8235905067ffffffffffffffff811115612a6e57612a6d612a31565b5b602083019150836001820283011115612a8a57612a89612a36565b5b9250929050565b60008060208385031215612aa857612aa761272e565b5b600083013567ffffffffffffffff811115612ac657612ac5612733565b5b612ad285828601612a3b565b92509250509250929050565b600082825260208201905092915050565b6000612afa826127f3565b612b048185612ade565b9350612b1481856020860161280f565b612b1d81612842565b840191505092915050565b612b31816128ae565b82525050565b600060ff82169050919050565b612b4d81612b37565b82525050565b600060a0830160008301518482036000860152612b708282612aef565b9150506020830151612b856020860182612b28565b506040830151612b986040860182612b28565b506060830151612bab6060860182612b44565b5060808301518482036080860152612bc38282612aef565b9150508091505092915050565b60006020820190508181036000830152612bea8184612b53565b905092915050565b6000612bfd82612931565b9050919050565b612c0d81612bf2565b8114612c1857600080fd5b50565b600081359050612c2a81612c04565b92915050565b60008060008060608587031215612c4a57612c4961272e565b5b6000612c5887828801612c1b565b9450506020612c69878288016128cf565b935050604085013567ffffffffffffffff811115612c8a57612c89612733565b5b612c9687828801612a3b565b925092505092959194509250565b600060208284031215612cba57612cb961272e565b5b6000612cc884828501612984565b91505092915050565b612cda816128ae565b82525050565b6000602082019050612cf56000830184612cd1565b92915050565b612d0481612b37565b8114612d0f57600080fd5b50565b600081359050612d2181612cfb565b92915050565b60008060008060008060808789031215612d4457612d4361272e565b5b600087013567ffffffffffffffff811115612d6257612d61612733565b5b612d6e89828a01612a3b565b96509650506020612d8189828a016128cf565b9450506040612d9289828a01612d12565b935050606087013567ffffffffffffffff811115612db357612db2612733565b5b612dbf89828a01612a3b565b92509250509295509295509295565b612dd7816127bd565b8114612de257600080fd5b50565b600081359050612df481612dce565b92915050565b60008060408385031215612e1157612e1061272e565b5b6000612e1f85828601612984565b9250506020612e3085828601612de5565b9150509250929050565b600080fd5b7f4e487b7100000000000000000000000000000000000000000000000000000000600052604160045260246000fd5b612e7782612842565b810181811067ffffffffffffffff82111715612e9657612e95612e3f565b5b80604052505050565b6000612ea9612724565b9050612eb58282612e6e565b919050565b600067ffffffffffffffff821115612ed557612ed4612e3f565b5b612ede82612842565b9050602081019050919050565b82818337600083830152505050565b6000612f0d612f0884612eba565b612e9f565b905082815260208101848484011115612f2957612f28612e3a565b5b612f34848285612eeb565b509392505050565b600082601f830112612f5157612f50612a2c565b5b8135612f61848260208601612efa565b91505092915050565b60008060008060808587031215612f8457612f8361272e565b5b6000612f9287828801612984565b9450506020612fa387828801612984565b9350506040612fb4878288016128cf565b925050606085013567ffffffffffffffff811115612fd557612fd4612733565b5b612fe187828801612f3c565b91505092959194509250565b600080604083850312156130045761300361272e565b5b600061301285828601612984565b925050602061302385828601612984565b9150509250929050565b7f4e487b7100000000000000000000000000000000000000000000000000000000600052602260045260246000fd5b6000600282049050600182168061307457607f821691505b602082108114156130885761308761302d565b5b50919050565b7f4552433732313a20617070726f76616c20746f2063757272656e74206f776e6560008201527f7200000000000000000000000000000000000000000000000000000000000000602082015250565b60006130ea6021836127fe565b91506130f58261308e565b604082019050919050565b60006020820190508181036000830152613119816130dd565b9050919050565b7f4552433732313a20617070726f76652063616c6c6572206973206e6f7420746f60008201527f6b656e206f776e6572206e6f7220617070726f76656420666f7220616c6c0000602082015250565b600061317c603e836127fe565b915061318782613120565b604082019050919050565b600060208201905081810360008301526131ab8161316f565b9050919050565b7f4552433732313a2063616c6c6572206973206e6f7420746f6b656e206f776e6560008201527f72206e6f7220617070726f766564000000000000000000000000000000000000602082015250565b600061320e602e836127fe565b9150613219826131b2565b604082019050919050565b6000602082019050818103600083015261323d81613201565b9050919050565b600081905092915050565b600061325b8385613244565b9350613268838584612eeb565b82840190509392505050565b600061328182848661324f565b91508190509392505050565b60008151905061329c816128b8565b92915050565b6000602082840312156132b8576132b761272e565b5b60006132c68482850161328d565b91505092915050565b7f62616c616e636520746f6f206c6f770000000000000000000000000000000000600082015250565b6000613305600f836127fe565b9150613310826132cf565b602082019050919050565b60006020820190508181036000830152613334816132f8565b9050919050565b7f4e487b7100000000000000000000000000000000000000000000000000000000600052601160045260246000fd5b6000613375826128ae565b9150613380836128ae565b9250817fffffffffffffffffffffffffffffffffffffffffffffffffffffffffffffffff04831182151516156133b9576133b861333b565b5b828202905092915050565b7f4e487b7100000000000000000000000000000000000000000000000000000000600052601260045260246000fd5b60006133fe826128ae565b9150613409836128ae565b925082613419576134186133c4565b5b828204905092915050565b7f77726f6e6720616d6f756e74206f6620746f6b656e7300000000000000000000600082015250565b600061345a6016836127fe565b915061346582613424565b602082019050919050565b600060208201905081810360008301526134898161344d565b9050919050565b7f6e6f2073706f7473206c65667400000000000000000000000000000000000000600082015250565b60006134c6600d836127fe565b91506134d182613490565b602082019050919050565b600060208201905081810360008301526134f5816134b9565b9050919050565b60006060820190506135116000830186612943565b61351e6020830185612943565b61352b6040830184612cd1565b949350505050565b60008151905061354281612dce565b92915050565b60006020828403121561355e5761355d61272e565b5b600061356c84828501613533565b91505092915050565b600061358082612b37565b915060008214156135945761359361333b565b5b600182039050919050565b60006135aa826128ae565b91506135b5836128ae565b9250827fffffffffffffffffffffffffffffffffffffffffffffffffffffffffffffffff038211156135ea576135e961333b565b5b828201905092915050565b600061360183856127fe565b935061360e838584612eeb565b61361783612842565b840190509392505050565b60006060820190506136376000830187612943565b818103602083015261364a8185876135f5565b90506136596040830184612cd1565b95945050505050565b60006040820190506136776000830185612943565b6136846020830184612cd1565b9392505050565b7f4552433732313a20696e76616c696420746f6b656e2049440000000000000000600082015250565b60006136c16018836127fe565b91506136cc8261368b565b602082019050919050565b600060208201905081810360008301526136f0816136b4565b9050919050565b7f4552433732313a2061646472657373207a65726f206973206e6f74206120766160008201527f6c6964206f776e65720000000000000000000000000000000000000000000000602082015250565b60006137536029836127fe565b915061375e826136f7565b604082019050919050565b6000602082019050818103600083015261378281613746565b9050919050565b6000613794826127f3565b61379e8185613244565b93506137ae81856020860161280f565b80840191505092915050565b60006137c68284613789565b915081905092915050565b7f4f776e61626c653a206e6577206f776e657220697320746865207a65726f206160008201527f6464726573730000000000000000000000000000000000000000000000000000602082015250565b600061382d6026836127fe565b9150613838826137d1565b604082019050919050565b6000602082019050818103600083015261385c81613820565b9050919050565b7f4552433732313a207472616e736665722066726f6d20696e636f72726563742060008201527f6f776e6572000000000000000000000000000000000000000000000000000000602082015250565b60006138bf6025836127fe565b91506138ca82613863565b604082019050919050565b600060208201905081810360008301526138ee816138b2565b9050919050565b7f4552433732313a207472616e7366657220746f20746865207a65726f2061646460008201527f7265737300000000000000000000000000000000000000000000000000000000602082015250565b60006139516024836127fe565b915061395c826138f5565b604082019050919050565b6000602082019050818103600083015261398081613944565b9050919050565b6000613992826128ae565b915061399d836128ae565b9250828210156139b0576139af61333b565b5b828203905092915050565b7f4552433732313a206d696e7420746f20746865207a65726f2061646472657373600082015250565b60006139f16020836127fe565b91506139fc826139bb565b602082019050919050565b60006020820190508181036000830152613a20816139e4565b9050919050565b7f4552433732313a20746f6b656e20616c7265616479206d696e74656400000000600082015250565b6000613a5d601c836127fe565b9150613a6882613a27565b602082019050919050565b60006020820190508181036000830152613a8c81613a50565b9050919050565b7f45524337323155524953746f726167653a2055524920736574206f66206e6f6e60008201527f6578697374656e7420746f6b656e000000000000000000000000000000000000602082015250565b6000613aef602e836127fe565b9150613afa82613a93565b604082019050919050565b60006020820190508181036000830152613b1e81613ae2565b9050919050565b7f4f776e61626c653a2063616c6c6572206973206e6f7420746865206f776e6572600082015250565b6000613b5b6020836127fe565b9150613b6682613b25565b602082019050919050565b60006020820190508181036000830152613b8a81613b4e565b9050919050565b7f4552433732313a20617070726f766520746f2063616c6c657200000000000000600082015250565b6000613bc76019836127fe565b9150613bd282613b91565b602082019050919050565b60006020820190508181036000830152613bf681613bba565b9050919050565b7f4552433732313a207472616e7366657220746f206e6f6e20455243373231526560008201527f63656976657220696d706c656d656e7465720000000000000000000000000000602082015250565b6000613c596032836127fe565b9150613c6482613bfd565b604082019050919050565b60006020820190508181036000830152613c8881613c4c565b9050919050565b6000613c9b8285613789565b9150613ca78284613789565b91508190509392505050565b600081519050919050565b600082825260208201905092915050565b6000613cda82613cb3565b613ce48185613cbe565b9350613cf481856020860161280f565b613cfd81612842565b840191505092915050565b6000608082019050613d1d6000830187612943565b613d2a6020830186612943565b613d376040830185612cd1565b8181036060830152613d498184613ccf565b905095945050505050565b600081519050613d6381612764565b92915050565b600060208284031215613d7f57613d7e61272e565b5b6000613d8d84828501613d54565b91505092915050565b6000613da1826128ae565b91507fffffffffffffffffffffffffffffffffffffffffffffffffffffffffffffffff821415613dd457613dd361333b565b5b600182019050919050565b6000613dea826128ae565b9150613df5836128ae565b925082613e0557613e046133c4565b5b828206905092915050565b7f4e487b7100000000000000000000000000000000000000000000000000000000600052603260045260246000fdfea2646970667358221220d393b5d78af97183eabf6a1de25c4eb46c1cbc4e3a2c7056bb3e2cc52bf61c2f64736f6c63430008090033",
  "linkReferences": {},
  "deployedLinkReferences": {}
}